:020000040800F2
:10000000000002209906000895060008417E0008BD
:1000100095060008950600089506000800000000F7
:10002000000000000000000000000000950600082D
:10003000950600080000000095060008C57D000830
:100040009506000895060008950600089506000824
:100050009506000895060008950600089506000814
:10006000950600089506000895060008316A000804
:100070003D6A000889590008496A0008556A000865
:10008000797A00085D5F000895060008950600086B
:1000900095060008950600089506000895060008D4
:1000A00095060008950600089506000895060008C4
:1000B000117801081D78010829780108915F00086E
:1000C000950600089D5F00089506000881700108EC
:1000D0008D700108AD780008DD78000811790008FE
:1000E0009506000895060008000000009506000827
:1000F0009506000895060008950600089506000874
:1001000095060008896F0008357801089970010884
:1001100045790008797900089506000895060008D9
:100120009506000895060008BD700108F1700108E9
:10013000AD7A0008950600089506000895060008A7
:1001400000000000000000000000000000000000AF
:10015000950600089506000895060008AD79000888
:10016000A95F000895060008D57D0008F97D000804
:10017000950600081D7E00089506000895060008F3
:100180009506000895060008E1790008117A000834
:10019000A5700108B17001089506000895060008D1
:1001A00095060008950600089506000895060008C3
:1001B0005167000895060008950600089506000896
:1001C0009506000895060008A9540008B5540008D3
:1001D00095060008C1540008950600089506000819
:1001E0009506000895060008950600089506000883
:1001F0009506000895060008950600089506000873
:100200009506000895060008950600089506000862
:100210009506000895060008950600089506000852
:1002200095060008950600089506000800000000E5
:1002300095060008950600080000000095060008D5
:100240009506000895060008950600089506000822
:100250009506000895060008950600089506000812
:100260009506000895060008950600089506000802
:100270009506000895060008457A00080000000071
:100280009506000895060008950600080000000085
:080290000000000095060008C3
:1002A00010B5054C237833B9044B13B10448AFF3B0
:1002B00000800123237010BD7006002400000000A0
:1002C00058BB010808B5034B1BB103490348AFF302
:1002D000008008BD000000007406002458BB01081F
:1002E00001F0FF01102A2BDB10F0070F08D010F8E7
:1002F000013B013A8B422DD010F0070F42B3F6D1EB
:10030000F0B441EA012141EA014122F007047FF003
:1003100000070023F0E80256083C85EA010586EA5A
:10032000010685FA47F5A3FA87F586FA47F6A5FA96
:1003300087F68EB9EED1F0BC01F0FF0102F00702A2
:1003400032B110F8013B013A83EA010313B1F8D14D
:100350000020704701387047002D06BF354603382E
:10036000073815F0010F07D1013015F4807F02BF67
:10037000013015F4C03F0130F0BC0138704700BFB8
:10038000034613F8012B002AFBD1181A01387047D5
:1003900053B94AB9002908BF00281CBF4FF0FF31EC
:1003A0004FF0FF3000F074B9ADF1080C6DE904CEE8
:1003B00000F006F8DDF804E0DDE9022304B0704740
:1003C0002DE9F047089D04468E46002B4DD18A4208
:1003D000944669D9B2FA82F252B101FA02F3C2F13B
:1003E000200120FA01F10CFA02FC41EA030E9440CC
:1003F0004FEA1C48210CBEFBF8F61FFA8CF708FBED
:1004000016E341EA034306FB07F199420AD91CEBC4
:10041000030306F1FF3080F01F81994240F21C81F6
:10042000023E63445B1AA4B2B3FBF8F008FB10333E
:1004300044EA034400FB07F7A7420AD91CEB040473
:1004400000F1FF3380F00A81A74240F20781644443
:10045000023840EA0640E41B00261DB1D4400023C8
:10046000C5E900433146BDE8F0878B4209D9002D2C
:1004700000F0EF800026C5E9000130463146BDE8B6
:10048000F087B3FA83F6002E4AD18B4202D3824220
:1004900000F2F980841A61EB030301209E46002DCF
:1004A000E0D0C5E9004EDDE702B9FFDEB2FA82F224
:1004B000002A40F09280A1EB0C014FEA1C471FFA82
:1004C0008CFE0126200CB1FBF7F307FB131140EA69
:1004D00001410EFB03F0884208D91CEB010103F136
:1004E000FF3802D2884200F2CB804346091AA4B2F8
:1004F000B1FBF7F007FB101144EA01440EFB00FECC
:10050000A64508D91CEB040400F1FF3102D2A64530
:1005100000F2BB800846A4EB0E0440EA03409CE7CF
:10052000C6F12007B34022FA07FC4CEA030C20FA7C
:1005300007F401FA06F31C43F9404FEA1C4900FA9C
:1005400006F3B1FBF9F8200C1FFA8CFE09FB181119
:1005500040EA014108FB0EF0884202FA06F20BD98C
:100560001CEB010108F1FF3A80F08880884240F2DC
:100570008580A8F102086144091AA4B2B1FBF9F020
:1005800009FB101144EA014100FB0EFE8E4508D91B
:100590001CEB010100F1FF346CD28E456AD90238A0
:1005A000614440EA0840A0FB0294A1EB0E01A14285
:1005B000C846A64656D353D05DB1B3EB080261EBF3
:1005C0000E0101FA07F722FA06F3F1401F43C5E9CD
:1005D000007100263146BDE8F087C2F12003D84003
:1005E0000CFA02FC21FA03F3914001434FEA1C4745
:1005F0001FFA8CFEB3FBF7F007FB10360B0C43EA37
:10060000064300FB0EF69E4204FA02F408D91CEBE6
:10061000030300F1FF382FD29E422DD902386344E4
:100620009B1B89B2B3FBF7F607FB163341EA034184
:1006300006FB0EF38B4208D91CEB010106F1FF38D3
:1006400016D28B4214D9023E6144C91A46EA0046CA
:1006500038E72E46284605E70646E3E61846F8E65C
:100660004B45A9D2B9EB020864EB0C0E0138A3E7A5
:100670004646EAE7204694E74046D1E7D0467BE786
:10068000023B614432E7304609E76444023842E7FE
:10069000704700BFFEE700BF0B480C4A904203D0F2
:1006A000121A0B4918F0B8FE0A480B4A904203D0C0
:1006B000121A002118F0D8FE07F0ECFD18F078FEB1
:1006C00002F0E2FAFEE700BF0000002470060024FA
:1006D00090BB01087006002458160124034B03EB5D
:1006E000800203445268187B536818479808002416
:1006F000074B1A5C52B903EB800219184FF0010C3A
:10070000526803F800C0087B136818470020704740
:100710009808002430B4054C04EB800504446D684F
:10072000207BAC68A44630BC604700BF980800241A
:1007300030B4054C04EB800504446D68207BEC6804
:10074000A44630BC604700BF98080024044B03EB6C
:10075000000C03EB80035B689CF80C001B691847D6
:100760009808002410B404689CB12178844622467D
:100770001F2913D93A2911D012F8013F1F2B0ED986
:100780003A2BF9D10134A1F13000A24201D1012864
:100790000BD94FF0FF305DF8044B70470B463A2BF6
:1007A000F0D000205DF8044B70470132CCF80020F7
:1007B000F8E700BF38B50D4640B1036804462BB1D9
:1007C0001A781AB18088DA88904203D00920002371
:1007D0002B6038BD5878FFF781FF10F00100F5D18C
:1007E0002368F5E72DE9F0410026D0F800808E75EA
:1007F0008369002B5AD0C36A07460D4601331ED0C9
:10080000D8F80C301888002861D001F115060124B1
:1008100000E01C46002101F017FE631C002856D0A2
:10082000B4F5807F53D006F8010FD8F80C2032F8C9
:1008300014000028EDD12C440023A375AE7DD7F819
:100840001CC000204FF02E080CF1FF31024611F8B9
:10085000013F0132202B18D0052B08BFE523092AC0
:1008600026D02C1863727EB9A3F14107192F0AD83C
:10087000082A9CF80CE08CBF102708271EEA070FF7
:1008800001D02033DBB2A37501300B2ADFD12C1845
:10089000B6B1002363729CF80B302B72DCF81C306D
:1008A0002B60DCF816301A0CEB80AA80BDE8F081D2
:1008B0002C180EB984F81680013084F80980D0E72E
:1008C000A6759CF80C30002B08BF2C46E1E70024ED
:1008D00000232C44A375AE7DB1E700BF2DE9F041A4
:1008E000056B00F13408044601232A46414640784E
:1008F000FFF71EFFC0B9626A0746E369AA1AE070F3
:100900009A420ED2A678012E01D80AE0E3691D446E
:10091000013E012341462A466078FFF709FF012E78
:10092000F4D13846BDE8F08101273846BDE8F081B2
:1009300070B5C37804465BB92378032B0FD000222F
:1009400060781146FFF702FF003818BF012070BD24
:10095000FFF7C4FF0028FAD12378032BEFD12579C4
:10096000012DECD104F134064FF400720021304621
:1009700018F07AFD55233146722684F832322B4620
:100980006569612084F81862522284F819622E0A7F
:1009900084F8360084F81B0284F81C52206984F81D
:1009A0001D622E0C2D0E84F8342084F8352041224F
:1009B00084F81F52050A84F8372084F81A2284F834
:1009C0002002226A84F82152050C000E013284F8BC
:1009D0001E6284F82302AA20226384F8330284F87A
:1009E00022526078FFF7A4FE00232371A7E700BF1F
:1009F00038B5C37804460D4663B901232A4604F18D
:100A000034016078FFF786FE10B101204FF0FF350A
:100A1000256338BDFFF762FF0028EED038BD00BF68
:100A200070B54FF0FF3600230446B142C370066331
:100A30000CD00D460A46012300F134014078FFF73F
:100A400069FE10B10420266370BD25634AF6552364
:100A5000B4F832229A421AD194F83430E92B07D0F4
:100A6000636B0D4A03F0FF13934201D0022070BD67
:100A7000D4F86A30094A23F07F43934209D0D4F86E
:100A80008600074B984214BF0220002070BD03204F
:100A900070BD002070BD00BFEB00900046415400C7
:100AA000464154330023F0B50B6085B00E46144622
:100AB000FFF758FE051EC0F2B9808B4B53F8257026
:100AC000002F00F0C080376004F0FE043B787BB15B
:100AD0007878FFF703FEC6070AD4002C00F09F8049
:100AE00010F0040400F09B800A24204605B0F0BDFD
:100AF000E8B2002378703B70FFF7FAFDC50700F1FC
:100B000091800CB14407EFD400213846FFF788FFED
:100B100002286AD0042800F08D8001287ED80025A4
:100B2000B7F83F30B3F5007F78D1B7F84A2002B963
:100B3000BA6D97F84430FA61591EBB7001296DD81F
:100B400097F8411088B27881002867D0481E084283
:100B500064D1B7F8456030073E815FD1B7F84700F0
:100B600000B9786DB7F842E0BEF1000F56D002FB35
:100B700003F30EEB16141C44A0424FD3001B884213
:100B8000B0FBF1FC4AD34FF6F5718C455DD840F6C9
:100B9000F5710EEB05002C443D628C450CF1020111
:100BA000FC62B961786271D8002E37D0034401EB42
:100BB000410001F00101BB6201EB5001012001F293
:100BC000FF11B2EB512F29D34FF0FF338022C7E939
:100BD00004333A71454A002445491388387001337B
:100BE000F9609BB21380FB8019E06C4607F5F9733E
:100BF00007F2322520461A79114602B1996810335E
:100C000040F8041B9D42F6D104F1100654F8045B31
:100C100003208DB9B442F9D104280BD00D2420460D
:100C200005B0F0BD0324204605B0F0BD0B242046DE
:100C300005B0F0BD0124F2E729463846FFF7F0FE83
:100C40000128E7D86CE70C24E9E70EEB05010CF16D
:100C500002032C443D627962B7F85E10FC623143B6
:100C6000BB61DBD19B00396E03F2FF13B962B2EBBB
:100C7000532FD3D3B7F864204FF0FF338021012ADC
:100C80003971C7E9043308D00320A3E7002EC5D08B
:100C9000034449000220BB6291E7691C3B6B994207
:100CA00004D03846FFF7A4FE0028EDD14AF65523BC
:100CB000B7F8322200219A423971E5D17A6B0D4B97
:100CC0009A42E1D103F1FF53D7F8182203F50053FC
:100CD00020339A42D8D1D7F81C220320D7F82032EB
:100CE000C7E9043276E700BF8C060024940600248E
:100CF00098060024525261412DE9F84303780446D6
:100D00000D461646022B06D0032B6AD0012B27D0A6
:100D10000220BDE8F883476A036B07EB11279F4267
:100D200000F09080C378002B40F0B68004F13408C6
:100D300001233A4660784146FFF7ECFC00284AD18F
:100D400027636D00C6F307220123002005F4FF7519
:100D500008EB050108F805604A70E370BDE8F88308
:100D600001EB5107426A036B02EB5728984563D0A9
:100D7000C378002B40F08A8004F1340901234246F5
:100D800060784946FFF7C6FC28BBC4F8308015F0F0
:100D9000010507F10108C7F308075ED019F807300D
:100DA00003F00F0343EA061309F807300123676ACB
:100DB000E37007EB5827236B9F4278D02046FFF75C
:100DC0008DFD0028A5D101233A4649466078FFF7FA
:100DD000A1FC002839D04FF0FF3301202363BDE888
:100DE000F883426A036B02EBD118984527D0C37889
:100DF000002B57D104F1340701234246607839466D
:100E0000FFF788FC0028E6D1C4F83080AD0026F05A
:100E1000704205F4FE757B59791903F070431A434B
:100E2000130C7A55100A8B70120E01234870CA7089
:100E30000020E370BDE8F88300F13409A7E700F172
:100E40003407E3E700F134087BE7C8F308012763C0
:100E500049447DB1C6F3071212E009F80760012387
:100E6000676AE37007EB5827236B9F42A6D1C8F34C
:100E7000080149440B78C6F3032223F00F063243DE
:100E800001230A700020E370BDE8F883FFF726FD18
:100E900000283FF471AF3CE7FFF720FD00283FF446
:100EA00045AF36E7FFF71AFD0028A3D031E7C8F3B6
:100EB000080309EB0301CDE701294CD98369994265
:100EC0002DE9F0410C46054602D30120BDE8F08132
:100ED0000378022B5AD0032B3FD0012BF5D101EB25
:100EE0005106426A036B02EB56279F420ED0C3782D
:100EF000002B79D101233A4605F134016878FFF7D8
:100F000009FC00285FD16A6A3B462F63771CC6F351
:100F1000080602EB57282E44434596F834600DD05E
:100F2000EB78002B65D10123424605F13401687846
:100F3000FFF7F0FB002846D1C5F83080C7F308075B
:100F4000E3073D4495F8340046EA00204CBF000911
:100F5000C0F30B00BAE701207047466A036B06EB4B
:100F6000D1169E4229D0C37893BB05F134070123E3
:100F7000324668783946FFF7CDFB20BB2E63A400CC
:100F800004F4FE74385920F070409FE7466A036B02
:100F900006EB11269E4213D0C37803BB05F134073C
:100FA0000123324668783946FFF7B4FB58B92E63FF
:100FB000640004F4FF74385B88E700F13407DEE76F
:100FC00000F13407F4E74FF0FF3318462B637DE759
:100FD000FFF784FC0028C8D04FF0FF3076E7FFF71A
:100FE0007DFC0028DAD0F7E7FFF778FC002881D0F5
:100FF000F2E72846FFF772FC002894D0ECE700BF28
:10100000012970B50C4634D983690546994230D21E
:101010001146EAB193422CD9012A2AD04FF0FF326F
:10102000FFF76AFEA0B170BDAE69B34221D2FFF7EF
:1010300063FE0028F7D1D5E90523991E501C8A428A
:1010400004D22A79686142F001022A719C4212D2CC
:1010500021462846FFF730FF014623460022284656
:101060000C4641B1012C194603D0661C05D0012B5A
:10107000DAD8022070BD002070BD012070BD00BF15
:10108000F8B505460F46002942D10669836996BB2B
:101090000126344606E001282CD0431C2AD0A64263
:1010A00034D0AB69013428469C4203D3012E4FF063
:1010B00002042BD92146FFF7FFFE0028EBD1012CBB
:1010C00022D9AB699C421FD24FF0FF3221462846FD
:1010D000FFF712FE00B997B928BB2C61D5E90523AB
:1010E000023B9A4201D8013A6A612B79204643F0CB
:1010F00001032B71F8BD9E4228BF0126C9E7012FCD
:1011000002D0AB699F4213D30120F8BD0020F8BD87
:10111000FFF7D2FE0128F7D9421C06D0AB699842EE
:10112000E8D33E46B5E70128EED14FF0FF30F8BDD9
:10113000224639462846FFF7DFFDCDE72DE9F04F7F
:10114000056983B083692035B5F5001F3BD2002BBC
:1011500039D0C5F3080804460768B8F1000F08D075
:1011600007F13406464400202561E66103B0BDE87E
:10117000F08F0E4601334169836141B3B7F80A909D
:1011800009F1FF3919EA5529EAD13846FFF794FEEB
:101190000128834623D9B0F1FF3F5DD0BA6982426E
:1011A0001FD9831E07F134060193023A0199C4F84E
:1011B00014B08A4204D9B7F80A90FB6A01FB0939D6
:1011C000C4F81890CEE7042003B0BDE8F08F3B8947
:1011D000B3EB551FC4D800230420A361C6E7022047
:1011E000C4E7002EF7D061692068FFF749FF834606
:1011F000002839D00128F2D0B0F1FF3F2CD0FA7886
:10120000002A33D107F13406ABF102034FF4007228
:1012100000213046019318F027F9B869019B821E1E
:10122000934229D27989FA6A019B03FB01223A632E
:1012300029B34FF0000A05E03A6B78890132504536
:101240003A630BD94FF0010338460AF1010AFB70EB
:10125000FFF744FB0028EFD0012087E7B869A2EB35
:101260000A023A630246A0E707207FE73846FFF705
:1012700035FB0028C6D0EFE779890022D7E78A46F8
:10128000EDE700BF2DE9F04704464FF0FF080420CA
:1012900025684646D4F8189005F13407B9F1000FD7
:1012A00032D02B6B4B4513D0EB78002B64D101234C
:1012B0004A4639466878FFF72DFA38B14FF0FF33C8
:1012C00001202B630023A361BDE8F087C5F83090AF
:1012D000E1690A78002A58D0CB7AE52A03F03F0367
:1012E000A37105D02E2A03D023F02000082810D1A6
:1012F000FF2600212046FFF721FF0028E2D1D4F885
:101300001890B9F1000FCCD10028DBD10020BDE846
:10131000F0870F2B46D1500634D5236902F0BF0663
:1013200091F80D80E3624B7B4345E1D14B8B002B61
:10133000DED10B780122DFF894E04FF6FF7A23F03C
:101340004003D5F80C900EF10C0C013B03EB43006D
:1013500003EB8003104609E0FE2B1046C8D829F89D
:1013600013200133E64512D01EF8012F8A5A0028B7
:10137000F2D15245F6D0BBE72846FFF7AFFA002876
:1013800095D09FE7B242B3D1CDE704209AE70A781F
:10139000520604D5FE2BABD8002229F81320013EBB
:1013A000F6B2A6E76EB901F10B02F30143EA560665
:1013B00011F8013B53FA86F69142F6B2F5D1464553
:1013C000A4D04FF0FF330020E3627DE7A8AC010812
:1013D000B1F5001F42D2CA06F8B50D4620D181688A
:1013E000064607680561E9B17B89B5EB432F4FEAF3
:1013F000432435D3384607E0012811D9BB6983421D
:101400000ED9AC422DD83068FFF756FD431CA5EB32
:1014100004050146F0D10120F8BD0023C6E90513FB
:101420000220F8BD3B78022B13D83B89B3EB551F44
:10143000F6D9BA6AB2617161002AF1D007F13403BA
:10144000C5F3080102EB552200200B44C6E9062330
:10145000F8BDBB6A002BE8D01946C5E702207047EB
:10146000BB69023B881E9842D7D27B89FA6A00FB8F
:101470000322B261DFE700BF2DE9F04F00210546EE
:1014800007682DED028B85B0FFF7A2FFC8B94FF0BA
:10149000FF094FF0FF3307F13408CA46EB62AC692D
:1014A0003B6B9C4213D0FB78002B4FD1012322468B
:1014B00041467878FFF72EF940B14FF0FF33012015
:1014C0003B6305B0BDEC028BBDE8F08F3C63EC697B
:1014D0002678002E00F0AB80E27AE52E02F03F0382
:1014E000AB7103D0100711D50F2B39D04FF0FF335C
:1014F0004FF0FF0AEB6200212846FFF71FFE00288D
:10150000CDD005B0BDEC028BBDE8F08F0F2B27D0FE
:10151000BAF1000F77D095F82B0010F00100E5D15B
:1015200095F8201005F1210214F8013B05F12B0676
:101530005B1A002BDAD112F8011B14F8013BB242FE
:10154000A3EB0103F5D1002BD0D1BAE73846FFF762
:10155000C5F90028AAD005B0BDEC028BBDE8F08F1C
:1015600095F82B305906C6D4720647D52B6906F07C
:10157000BF0694F80D90EB62637B4B4540D1638BC3
:10158000002B3DD194F800A00123F96808EE108AE1
:101590000AF03F0A029601950E460AF1FF3ADFF87B
:1015A000C0B0184625460AEB4A02039100970AEBA1
:1015B000820A13E0BAF1FE0F204618D800F064FF4B
:1015C000804636F81A00BA4600F05EFF8045204695
:1015D0000DD1224B9B452CD01BF8013F0AF101078E
:1015E000EC5A0028E6D14FF6FF739C42F1D0DDE9BA
:1015F000007518EE108A4FF0FF0A7CE7B245BBD0A9
:101600004FF0FF0A77E704F10B0022464FEACA13B6
:1016100012F8011B43EA5A0A824251FA8AFA5FFA27
:101620008AFAF3D1D1457FF476AF002049E7042050
:1016300047E72C46009F029E18EE108A2378019DF2
:101640005B0600D520B906F1FF3A5FFA8AFA52E745
:10165000039B33F81A30002BF5D0D1E7B4AC010866
:10166000A8AC01082DE9F04F0B7883B00F46064671
:101670002F2BD0F800B003D117F8013F2F2BFBD050
:101680005C2BF9D00021B1603B781F2B40F23C81EC
:101690005A461F2BD56898B229D9A5F10209B84638
:1016A000012408E029F8020F631C18F8010F1F2815
:1016B00040F2ED801C462F2804F1FF3A1DD05C2833
:1016C0001BD0B4F5807F0ED0012100F0BDFE50B1DB
:1016D0007F28E7D822239F4A03E012F8013F002B1E
:1016E000E0D09842F9D1062003B0BDE8F08F002386
:1016F00006202B8003B0BDE8F08F3B5D3A195C2BD0
:1017000002D02F2B40F01481631C3B441F4613F87A
:10171000012B2F2AFAD05C2AF8D0BAF1000FE6D0BC
:101720004FF0000805EB4A0202E0BAF1010ADED0F0
:1017300032F8023D202BF8D02E2BF6D04FF020337C
:10174000002225F81A2073623362C6F827302888F1
:101750002E2802D0202840F0E0802A46002332F8CC
:10176000020F1C4601332028F9D02E28F7D048F06C
:101770000308023405EB4A0333F8022D2E2A02D067
:10178000BAF1010AF8D1A0B308223946002337463E
:101790002E46154699460A46202803D02E284AD1BF
:1017A000A24548D048F0030836F814000134002858
:1017B000F2D13E4617462A4696F82010E52902D176
:1017C000052186F82010082A00F08C8003F00C0216
:1017D0000C2A61D003F00303032B5DD018F0020F35
:1017E00007D1012B08BF48F01008042A08BF48F0B1
:1017F0000808304686F82B80FFF73EFE96F82B301F
:10180000002854D15A073FF56FAFB379DB0640F19A
:10181000918032690BF134039BF80010C2F3080287
:10182000032913445A8B02D19B8A42EA0342B260D5
:1018300032683B782DE74D451BD9AAEB0401B1FA7C
:1018400081F14909A9B97F2839D82B21DFF80CC1CA
:1018500003E01CF8011F00294ED08142F9D148F065
:1018600003085F2007EB090109F1010981F8200055
:101870009AE70B2D60D0A24502D048F0030898D318
:101880009B0054460B254FF00809DBB28CE71F4440
:10189000A2464FF0040845E748F00208304686F8B3
:1018A0002B80FFF7E9FD96F82B300028AAD00428FA
:1018B0007FF41AAF13F0040F08BF052014E7CDE939
:1018C000003200F0C1FDDDE9003210B948F0020835
:1018D000C5E7214948F00208014411F8800C0028AE
:1018E000BDD0B2E79B0003F00C020C2AD4D018F054
:1018F000020F3FF47AAF7CE7A0F1410119290ED81D
:1019000043F00203C0B2ADE78023304686F82B30A7
:1019100003B0BDE8F04FFFF75BBD01242AE7A0F15B
:10192000610119299CBF203843F00103C0B299E737
:101930001746F2E60520D7E63E46174648F003086C
:1019400096F82020E52A7FF441AF052286F8202072
:101950003CE700BF14AC010828AC010820AC01082A
:101960002DE9F04F2DED028B90F82B308BB013F05A
:10197000A002009340F02E81D0F800A00646DAF8CD
:101980000CE0BEF80030002B00F0C7819346724691
:1019900032F8023F0BF1010B002BF9D106F12003C5
:1019A0000DF11C0893E8070088E80700009A0293ED
:1019B000D1076BD56FF01F054022B1460127AD1B43
:1019C00086F82B20AD4C7346029EB446052F98E84E
:1019D0000700ACE803002CF8022B4FEA12428CF807
:1019E00000206FD9198800296CD09C463B461020F6
:1019F00001F00102490802EB4303DA0348BF6340E8
:101A00000138F5D13CF8021F0029F0D10DF11B0C73
:101A1000072203F00F004FEA131E013A00F13001D4
:101A2000392988BF00F137010F2B73460CF80119D3
:101A3000EFD80AAB7E21134403F8141C002A43D0CC
:101A400009F11F01002302E001339A4203D011F88B
:101A5000010F2028F8D120334B440AA9072A01EBB3
:101A600002004FF0200102D810F8141C013203F8D4
:101A7000011BE9180729F0D94846FFF7FDFC28BBF0
:101A80000137642F16D0DAF80C309EE7009B5446DD
:101A90009B0726D57A4B0BF10C0700213046A3FBA0
:101AA0000737FFF795FC8146BF08013708B30428C4
:101AB00040F03A814FF0070948460BB0BDEC028B6D
:101AC000BDE8F08F3B46A1E71346C4E704284E4625
:101AD0008146F1D1009B346886F82B30009B9B0730
:101AE000D8D400213046FFF773FC01278146002837
:101AF000DDD1054604F13408D6F818B0236B9B45B8
:101B000016D0E378002B5FD101235A464146607816
:101B1000FEF700FE50B14FF001094FF0FF33484689
:101B200023630BB0BDEC028BBDE8F08FC4F830B07E
:101B3000F3691B78E52B0BD0B3FA83F252093BB162
:101B4000154601213046FFF7F9FA0028D4D0AEE758
:101B50000135AF42F5D17B1E00933ED1B469DAF86E
:101B600030309C4211D09AF80330002B40F0DE80D8
:101B7000012322460AF134019AF80100FEF7CAFD5A
:101B8000002840F0C380CAF8304020220021F069CC
:101B900017F06AFCF36906F12B01029A013B12F877
:101BA000010B914203F8010FF9D196F82B30012275
:101BB000F169484603F018030B738AF803200BB051
:101BC000BDEC028BBDE8F08F2046FEF787FE0028B3
:101BD0009AD06CE74FF006096EE731693046009BFA
:101BE000A1EB4311FFF7F4FB0190002840F0A68021
:101BF00006F12B01029AC30143EA500312F8010BCC
:101C000050FA83F38A42D8B2F5D10AF13403DFF8EF
:101C100074B0019008EE103ACDF80C90B469DAF87F
:101C200030309C420FD09AF80330002B77D101233B
:101C3000224618EE101A9AF80100FEF76BFD0028F4
:101C400064D1CAF830409DF800900F27F169002553
:101C500009F1FF30DAF80CE0CF722B4600EB4002BE
:101C6000019F01244FF6FF7800EB82004FF0FF0C3C
:101C70002A464F730D738D76CD761DE0211001003D
:101C80004FECC44EA8AC01083EF81030180A0B55B2
:101C900068705BB901324FF6FF730D2A23D01BF831
:101CA00002000C1801F800C084F801C00132384667
:101CB0000D2A11D01BF80240434501EB040500F149
:101CC0000107E1D1013201F804C007460C440D2A96
:101CD000384684F801C0EDD14FF6FF72934202D02E
:101CE0003EF817300BB949F04009012381F8009004
:101CF000304600218AF80330FFF720FAA0B9009B94
:101D0000013B00938AD1DDF80C9027E74FF0FF33B9
:101D10004FF00109CAF83030CEE69B463EE6504609
:101D2000FEF7DCFD002882D08146C5E65046FEF76E
:101D3000D5FD00283FF41CAF8146BDE6DDF80490D8
:101D4000BAE600BF30B585B01546019003A80091F2
:101D50000391FEF707FD031E1BDB0F4C54F8231005
:101D600009B100220A70019959B10022012D44F8ED
:101D700023100A700AD101A96846FEF793FE05B048
:101D800030BD084644F8231005B030BD104605B0FC
:101D900030BD0B2005B030BD8C0600242DE9F04786
:101DA00090B00191002800F0838002F03F071646B2
:101DB000044603A901A83A46FEF774FE054628B179
:101DC00000232360284610B0BDE8F087039B04A8D9
:101DD00001990493FFF746FC80B99DF93B30002B35
:101DE0006BDB16F01C0F10D09DF8163013F0110F9E
:101DF00065D1730740F1CA800825E1E716F01C0F92
:101E000001D004285FD00546DAE79DF81630DA06DF
:101E100057D4B10701D5DA0751D4DDF80C903B0750
:101E200048BF47F04007D9F8303023620B9B63620C
:101E300099F800205E8B032A02D19A8A46EA02466C
:101E40000021A66004F12C0AD3F81C80B9F80630F2
:101E50004FF4007227745046C4F80090C4F80C8008
:101E6000A162A3806174E161616117F0FDFABF06B0
:101E7000A8D5B8F1000FA5D0B9F80A30C4F814807D
:101E8000B8EB432F4FEA432706D884E0701C00F0DC
:101E9000B880474580F0B58031462068FFF70CF8E0
:101EA0000128A8EB07080646F0D80225A06187E7BD
:101EB0000925284610B0BDE8F087062580E70725EC
:101EC0007EE704257CE704A847F00807FFF748FDF4
:101ED000002898D105F072FF0B9BC6B2C0F30742F1
:101EE000C0F30721000E9E734FF0200CD9731A74B3
:101EF00058740B9BDDF80C909E75D9751A76587640
:101F00000B9B83F80BC099F800200B9B032A5E8B78
:101F100002D19A8A46EA024600229A76DA7699F83F
:101F20000010032901D11A755A750B9B00221A77EC
:101F30005A779A77DA77012389F80330002E3FF435
:101F40006EAF31460498D9F83080FFF759F8002871
:101F50007FF459AFDDF80C90D9F8303098453AD07D
:101F600099F80330002B42D10123424609F1340194
:101F700099F80100FEF7CEFB88B34FF0FF31039BC9
:101F800001250E44C9F830101E6119E73007A1D4AD
:101F9000DDF80C9047E7A661C8F30803002B3FF477
:101FA00011AF0398023E8369023B9E4204D24289EC
:101FB000C36A06FB02320AB9022501E702EB582286
:101FC00051460123E2614078FEF7A4FB00283FF46C
:101FD000F9AE0125F4E6013EC9F810601FE7013EA5
:101FE000C9F83080DDF80C90C9F8106017E7484652
:101FF000FEF774FC0028B7D0039B013E05461E6126
:10200000DEE6711CA6610CBF01230023C4D11D466E
:10201000D6E600BF2DE9F04F1E4687B00023884664
:1020200005A9044633601746FEF7C4FB05460028A1
:1020300061D1657C002D5ED194F810A01AF0010AE0
:1020400000F0A1806069E3681B1A9F4228BF1F4609
:10205000002F50D004F50B7304F12C0BCDE90135A2
:10206000C0F3080363BB0599430A4A89013A12EA9F
:10207000502244D0A0698B690238023B98424BD26F
:10208000B1F80AC0CB6A0CFB0030002844D0B7F589
:10209000007F02EB000946D2E2694A450BD094F971
:1020A0001030002B71DB487801234A465946FEF771
:1020B00031FB002860D16369C4F81C90C3F30803A6
:1020C000C3F5007C5B4408F1FF32BC4528BFBC4629
:1020D00003EB0C0013F8011B834202F8011FF9D136
:1020E0006069B7EB0C073368E044604463446061A7
:1020F0003360B5D1029D284607B0BDE8F08F38BBEC
:10210000A068012808D9431C36D00599A06102387F
:102110008B69023B9842B3D302231D466374284661
:1021200007B0BDE8F08F02EB57207D0A6045487884
:10213000414688BFACEB02054A462B46FEF7EAFA59
:10214000D0B994F91020002A33DB4FEA452CC7E7B9
:10215000A06A38B3216804304989B3FBF1F3016800
:1021600029B9D9E75B1A50F8081F0029D4D08B424F
:10217000F8D240681844C4E75546012328466374E2
:1021800007B0BDE8F08F0725B5E748780123594629
:10219000FEF7CEFA0028EFD1237C059903F07F03E8
:1021A000237480E7A16920680392FEF785FE039AF5
:1021B000A7E7E269A2EB0909A945C6D208EB4929BC
:1021C00004F12C01019809F1FF3211F8013B814221
:1021D00002F8013FF9D1B8E770B3F8B503680446D7
:1021E0002BB11A781AB18188DA88914201D009207E
:1021F000F8BD5878FEF772FAC207F8D4237C13F0C2
:102200004000F5D01B06266847D405F0D7FD276AA5
:10221000336B05469F4212D0F378002B4AD101233D
:102220003A4606F134017078FEF774FA30B14FF097
:10223000FF3301203363F8BD092070473763636AB9
:10224000DA7A42F02002DA72A2682168C2F307202B
:102250009A76D8760978032903D1120C1A75120AD6
:102260005A75E26830469D75110A1A775977110C34
:10227000120E9977DA772A0ADA752A0C2D0E1A7659
:1022800000225D769A74DA740123F370FEF750FB36
:10229000237C23F040032374F8BD0123E26904F199
:1022A0002C017078FEF744FA50B9237C03F07F03C9
:1022B0002374AAE73046FEF711FB0028AFD0F8BD23
:1022C0000120F8BD10B582B00446FFF785FF08B1C4
:1022D00002B010BD01A92046FEF76CFA0028F7D124
:1022E000206002B010BD00BF10B584B0019100287D
:1022F00032D00446002203A901A8FEF7D3FB18B18F
:102300000023236004B010BD039B20460199236085
:10231000FFF7A8F9E0B994F92B30002B1FDBA37964
:10232000DB0617D5039BE16918784A8B032802D195
:10233000898A42EA0142A260DB8800212046A3800C
:10234000FFF746F8042805D00028D9D104B010BD05
:102350000428D5D10520D3E7092004B010BD039B84
:10236000EAE700BF98B1036810B504462BB11A78AC
:102370001AB18188DA88914201D0092010BD5878BD
:10238000FEF7ACF910F00100F7D1206010BD092074
:10239000704700BF20B3036870B5044633B11A78A4
:1023A00022B10D46DA888188914201D0092070BDA2
:1023B0005878FEF793F9C307F8D49DB12046FEF78D
:1023C00061FF10F0FB06F2D129462046FEF70AFA1B
:1023D00031462046FEF7B2FE042808BF002070BD3B
:1023E0000920704729462046BDE87040FEF7F0BF3F
:1023F000144B9A7B012A01D90120704793F80EC033
:1024000000225FFA8CFC03F80C2093F80EC003EB5B
:102410008C0CCCF8040093F80EC0987B9C448CF88C
:102420000C2000F1010C30305FFA8CFC83F80EC0F8
:102430004FF03A0C2F23087081F801C010468B70C2
:10244000CA707047980800247F2814D981B90D4AB2
:10245000C72303E080290DD032F8023F98421FFACB
:1024600081FC01F10101F5D10CF1800080B27047CF
:10247000FF2801D900207047024B803833F8100044
:10248000704700BFB8AC0108B0F5805F244A41F640
:102490007D51244B34BF6121134610B5043303E052
:1024A0000433DAB133F8041C1C46B1B1884214D3AA
:1024B00033F8022C5FFA82FC120A0CEB010E704515
:1024C000EEDA082A09D8DFE802F00512181B1E21EF
:1024D00024270E00411A33F8110010BD04EB4C0301
:1024E00034F81C10DAE7A0F5E35080B210BD431AAF
:1024F00003F00103C01A80B210BD103880B210BDC5
:10250000203880B210BD303880B210BD1A3880B289
:1025100010BD083080B210BD503880B210BD00BF71
:10252000ACAF0108B8AD0108704700BF704700BFED
:10253000704700BFC0687047FBB12DE9F04100272C
:102540008846BC469AB10CF1FF3E0CEB0206C6442D
:1025500008E041680CF1010CC56066450C5D0EF8A1
:10256000014F04D0C4688168651C8C42F1DB0137DF
:102570009F42E7D11846BDE8F0811846704700BF7A
:102580000A2A0BD00B2A0BD0C16800290CDB80680B
:1025900088424FF0FF30C8BF00207047C160F4E7A9
:1025A000C3681944C160F0E74FF0FF30704700BFC7
:1025B00038B5054CA4F5206554F8283D1B68204625
:1025C0009847AC42F8D138BDD0B30024F0B5002311
:1025D000774D7849EFB0784A784C0B6023602B46F2
:1025E00007CA03C3294603A81A80FFF77DFE002807
:1025F00040F0AD8029460646714802F065FD7148FD
:1026000002F062FD2846FDF7BBFE6F4B29461B8892
:102610002B526E4802F058FD0C236D483146009352
:102620006C4B426816F076FB28A903A8FFF7B2FEB0
:10263000002840F08F809DF8B630002B00F08A8093
:102640009DF8A83013F0120FEED123683E2B00F254
:10265000818061490DF1B60017F0A9F800287ED0FD
:102660005E490DF1B60017F0A2F80028DCD1504900
:102670000FA817F077F85A4D0DF1B60117F07BF857
:102680000FA802F021FD01220FA92846FFF786FBC3
:1026900000286DD1EE68534A2168534B42F82160FF
:1026A00019687218B2F1806F7ED228464F4D1A60B9
:1026B00002AB0D4432462946FFF7ACFC002863D13B
:1026C000236831464A4F07EB03135D60494DC3E968
:1026D0000260494802F0F8FC206807EB001100EBAB
:1026E000800005EBC00000F071FD03787A2B56D115
:1026F0004778002F53D141490FA817F06FF80646CD
:10270000FDF73EFE023839460A2230443C4F17F0AE
:1027100043F906463B48314602F0D6FC22683A4867
:1027200002EB820305EBC30399689E61016047F8E1
:102730002210364802F0C8FC206800EB800005EB50
:10274000C00000F041FD2368013323601FE03048E2
:1027500002F0BAFC03A8FFF705FE6FB0F0BD2D49EB
:102760000DF1B60017F023F800287FF479AF5BE78E
:102770000FA928460122FFF711FB04287FF454AF6C
:10278000254802F0A1FC4FE7244802F09DFC1448C4
:10279000FFF798FD2168224802F096FC44E70146C5
:1027A000204802F091FCF2E71F4802F08DFCEEE7B2
:1027B000F80A00248810002468B00108840F00245F
:1027C00074B001088CB001089CB00108A0B00108E9
:1027D000D40A0024B8B00108C8B00108D8B0010874
:1027E000A80800248C10002440A80024000000C089
:1027F000840B0024D0A90024F0B0010830B10108F6
:10280000880F002434B101085000002448B10108A9
:10281000A4B10108D0B0010880B101085CB1010881
:1028200070B1010804B10108E0B001082DE9F04FD2
:1028300083B0B7EE005B9946DFF838A1DDED0C7A86
:10284000154601914FEA4908B8EEE76B0090434EF8
:10285000DFF824B185EE067B06EE903A404B414C02
:10286000414FB8EEE61AB7EEC77B21EE071A8AEDA4
:10287000007A83ED001AB7EEC11A16F0A9FBB7EE85
:10288000C00B9AED007A4FF0FF31384AC0EE077A5C
:102890002160396082ED000AFBFE677AFDEEE77A7F
:1028A000F8EEE76A17EE903AC6ED007AF0EE407A5D
:1028B000E7EE667ACBED007A13E007EE909AB8EE79
:1028C000C00B2060B8EEE71B16F082FBBDEEC00B1C
:1028D00010EE103A55F82320511C3A6029D1216896
:1028E0003368481C08EB03028945A2EB000200EEA6
:1028F000102AE2DC1E4A106898422CD0BFEE007B02
:10290000136006EE901A009B9AED006A0120F8EE23
:10291000E65ADBED006A83ED007BB0EE667A019B40
:10292000A5EE867AB7EEC77A83ED007B03B0BDE8EB
:10293000F08F0F4B31681868814218BF1960931CE3
:1029400003D1002003B0BDE8F08F07EE902A216884
:10295000B8EEE77BD5E7BFEE007BD2E7EC0A0024B8
:1029600088A90024800B0024F00A0024F40A002423
:1029700044A80024C4A900243CA8002400000000AE
:102980002DE9F04F2DED048B85B095480D4603924F
:1029900002F0E2FA934A92F8403003B1136E924E7D
:1029A000924934680968234492F848000B44B3FB09
:1029B000F1F401FB1433336000283BD092F84E3021
:1029C0007F2B37D18A4C2368002B34DDDFF840A2FF
:1029D0004FF00009DFF8408210E0192B6FF0010280
:1029E0004FF0FF33CCBFCAF80020CAF8003009F11D
:1029F000010923680AF1040A4B451CDD16F020FE8C
:102A00007C4A642182FB0032C317C3EB621301FBD3
:102A10001303322BC8F80030DFDD16F011FE4342FD
:102A200000F0070003F0070358BF58424000CAF8FF
:102A30000000DCE76E4C6B4800F046FE6E4802F08A
:102A4000B7FB6E4B6E4883ED000A02F0B1FB6D4A96
:102A5000B7EEC07A236812686B4C0092DFF8BC9125
:102A600021466A4ADFF8B881484692ED000B88EDAE
:102A7000007B674AFFF7DAFE00287DD05F4B93EDBD
:102A8000006A644BB7EEC66A93ED005A039BB8EE3A
:102A9000C55B99ED002B98ED004B94ED003B82EE69
:102AA000050BDFF88081DFF8809126EE047BB7EE1E
:102AB000C77B88ED007AA4EE030B89ED000B002B99
:102AC0004CD00024DFF864B1DFF864A103E099ED95
:102AD000000B98ED007AB7EEC77A06EE904A32689E
:102AE0000021B8EE668AA70002EB82000BEB02120F
:102AF000B7EEC88A0AEBC0009FED359B87EE096BE5
:102B0000A8EE060B00F0B4F92968326801EB8401E5
:102B10000134F7EEC07B02EB82000BEB02120AEBF2
:102B2000C00099ED000BC1ED007A012198ED007A0B
:102B3000B7EEC77A87EE096BA8EE060B00F098F99E
:102B40006A68D319B7EEC00B83ED000A039BA3425A
:102B5000BDD12A4B93ED006AB7EEC66A2B4B9FEDB1
:102B60001E5B93ED007BA6EE057B83ED007B05B03D
:102B7000BDEC048BBDE8F08F039B002BE9D0039BD9
:102B8000D5E900049A0004EB8307B84202D2811809
:102B90008C420ED30021039216F066FC039A0021AA
:102BA000204616F061FC154B93ED006AB7EEC66A3D
:102BB000D4E7002340F8043B884244F8043BC8D0E3
:102BC000002340F8043B884244F8043BF1D1C0E7BD
:102BD0000000000000F945412858A77B3B4DB73E57
:102BE000401600240416002448A80024840F002462
:102BF000640000241F85EB518CA9002448000024A8
:102C00004CA8002460000024C8A90024600B002404
:102C100088A8002444000024680B0024780B0024BA
:102C2000580000244C000024700B0024840B002466
:102C3000D0A9002410B584B003220124002301A9E7
:102C40000C488DF80C30CDE9012404F0EBF8214656
:102C5000094805F08FF8224608490948FFF772F83D
:102C600018B1084802F030FAFEE7FFF7AFFC04B0F5
:102C700010BD00BF84A800248C110024F80A002491
:102C800090110024B8B1010830B5002189B0244862
:102C900000F0CCFD224804216D4600F1640400F0F0
:102CA000E3FC0321A4F1640000F0F4FCA4F164004F
:102CB00000F006FDDFED1B0A9FED1B0A0FCC0FC5D0
:102CC00094E80F00103485E80F0000226946174889
:102CD00002F03EFAEC46F0EE000AB8EE000A0FCC25
:102CE000ACE80F0094E80F0085E80F000022694669
:102CF0000F4802F02DFA012002F0F4F9FFF79AFFD5
:102D00000C4B1A68002A04DD92000B490B4816F0A0
:102D100083FB03480A4900F0A5FC002009B030BD40
:102D20000416002400009643000070428CA9002481
:102D30004CA80024640000240400002488A8002477
:102D40008129000830480022304900F5104370B551
:102D50008C88C3F82422A3F82A420724C3F82C2223
:102D60000D8802602A4942610262C0F87C214FF658
:102D70000F02C3F83012A3F83422A3F8285283F8C4
:102D80003642244A244915F001FF224A23492448A7
:102D900015F0FCFE234B244903F5806219601033C3
:102DA00000259A4243F8045C43E90355F6D11F4ECF
:102DB0001F4A06F108001F4CA2F10901306015F00E
:102DC00061FF326809231C493046557204F52065BD
:102DD000104A736015F0DAFE2046283400F040F8FF
:102DE000AC42F9D10B4A0020144915F0CFFE094A34
:102DF0001349144815F0CAFE064A11491248BDE8A5
:102E0000704015F0C3BE00BF04160024D0AB01080B
:102E100080707FF000000024312500082D25000877
:102E200084A80024840B0024E4B10108D40A0024FF
:102E3000D9B10108D0A90024078D0108B1250008E7
:102E4000292500088CA900244CA80024704700BF45
:102E500010B50446282115F09EFE204610BD00BF87
:102E600002490122016080F8242070475CB2010809
:102E7000D0ED067AB8EEE71BD0ED027A2DE9F047E7
:102E80002DED048BB8EE678B044631EE000B8AB053
:102E90008846154616F09CF828EE000BD4ED067A0D
:102EA000E668B8EEE77B216A012E80EE076BFDEE47
:102EB000C67BB8EEE78B17EE903A01FB038836EE3F
:102EC000488B44D0042E5DD0082E0FD0022E00F087
:102ED000AC80102E00F01281202E00F03C81B0EE6C
:102EE000490B0AB0BDEC048BBDE8F087E1690A220A
:102EF0002B68284601EB88019B68984701303AD03F
:102F00002B6802A9226A28465E680123D200B047D6
:102F1000012830D1B5EEC08BDDED026A9FEDA27BBA
:102F2000B8EEE69BF1EE10FA29EE079B0DDD236A61
:102F30000AAAB0EE495B02EB830313ED086AB8EE10
:102F4000C66B96EE075BA5EE089BE668BEE7E169F7
:102F50000A222B68284641449B68984701300AD0D2
:102F600029683346226A28464E6802A95200B047B3
:102F7000012800F08F809FED8E0B0AB0BDEC048B12
:102F8000BDE8F087E26908EB48012B682846114448
:102F90000A229B6898470130EDD0226A530000F066
:102FA0009B800DF1080A002622E02F68D7F80490D4
:102FB000C84701284FF00002DDD1019B8DF80420A5
:102FC00023F07F43C3F307428DF80730C3F3072391
:102FD0008DF80520226A8DF80630019B013607EE38
:102FE000103ABAEEE07BB6EB420FAAEC027B73D24A
:102FF00094F82430002BF0D094F804C0012303226D
:1030000001A92846BCF1000FCFD12B6803220DF196
:103010000501D3F804900123C8470128ABD1019BD7
:10302000226A23F0FF030193D8E7E1690A222B68A3
:10303000284601EB48019B68984701309BD02B68DC
:1030400002A9226A28465E6801239200B04701283F
:1030500091D1BDF90830B5EEC08B00EE103AF1EE1B
:1030600010FAB8EEC00B9FED547B20EE079B0FDDEE
:10307000236A0AAA02EB4303B0EE495B33F9203C12
:1030800006EE103AB8EEC66B96EE075BA5EE089B0F
:10309000E6681EE79DF80830B5EEC08B803BF1EE88
:1030A00010FA00EE103A9FED466BB8EEC00B20EE22
:1030B000069B0FDD236A0AAA1344B0EE495B13F89E
:1030C000203C803B07EE903AB8EEE77B97EE065B3C
:1030D000A5EE089BE668F5E6B5EEC08B9DED029B7C
:1030E000F1EE10FA08DD0AAB03EBC20212ED087B29
:1030F00037EE497BA7EE089BE668E5E6E1690A2220
:103100002B68284601EB88019B68984701303FF403
:1031100032AF2B6802A9226A28465E680123D200DA
:10312000B04701287FF427AFB5EEC08B9DED020AB2
:10313000B7EEC09AF1EE10FA0BDD236A0AAA02EB91
:10314000830313ED087AB7EEC77A37EE497BA7EE13
:10315000089BE668C0E6E1690A222B68284601EB75
:10316000C8019B68984701303FF405AF296828469D
:10317000226A01234D6802A91201A84701287FF4A1
:10318000FAAEB5EEC08B9DED020BF1EE10FA7FF7B3
:10319000A8AE236A0AAA02EBC30313ED087B37EE3D
:1031A000407BA7EE080B9CE6000000000000003EFC
:1031B0000000000000000000000000000000003FD0
:1031C000000000000000803F704700BF70B50C4653
:1031D00088B0054603232068042205A946682046D6
:1031E000B047032840F0E280226801232046566859
:1031F00004220DEB0201B047012831D0AA4808B0E3
:1032000070BD26687668B04703460B222046012B26
:1032100040F0CF8095F824307BB99DF808109DF8D8
:103220000B308DF80B108DF808309DF809109DF8C3
:103230000A308DF80A108DF80930236802999B68CE
:103240009847064604220123013620460DEB020171
:1032500000F0B18026687668B047012840F0AD8064
:10326000042292490DEB020016F08DFA0646012366
:10327000042202A92046002EC3D12368042202A9F9
:103280005E680123B047012840F099802268034618
:103290006946204656680222B047012840F09180D6
:1032A00095F82430A3B9BDF800309DF808205BBA2A
:1032B000ADF800309DF80B308DF80B208DF80830FC
:1032C0009DF809209DF80A308DF80A208DF8093004
:1032D000BDF800304FF6FE72934274D023F0020224
:1032E000012A93B240F0B780226820465668022235
:1032F0000DEB0201B047012840F0AF8095F8243073
:1033000023B9BDF802305BBAADF80230BDF9023026
:10331000042203A920462B6223685E680123B0477C
:10332000012840F09E8095F824307BB99DF80C2050
:103330009DF80F308DF80F208DF80C309DF80D2082
:103340009DF80E308DF80E208DF80D30DDED037AEE
:10335000002223680621B8EEE77B20469B68EA60DE
:103360000B2285ED047B9847013000F082802368B2
:103370000DF10201022220465E680123B0470128B8
:1033800075D195F8243023B9BDF802305BBAADF899
:103390000230BDF80020012A00F02F81032A00F03E
:1033A0002281EB68002B69D1414800E0414808B018
:1033B00070BD4148FBE74148F9E74148F7E741481C
:1033C000F5E74148F3E7236820461B6898472368E0
:1033D000E8610B229B680E2120469847013042D0BD
:1033E0002368022204A920465E680123B047012811
:1033F00035D195F8243023B9BDF810305BBAADF85B
:103400001030BDF81030002B2FD023680B2206217E
:1034100020469B689847013000F0E18023686946A8
:10342000022220465E680123B047012823D195F887
:10343000243023B9BDF800305BBAADF80030236802
:103440000A22E96920469B689847013000F0C9804C
:10345000BDF8003042E71D48A9E71D48A7E71D4811
:10346000A5E71D48A3E71D48A1E71D489FE71D48A4
:103470009DE71D489BE71D4899E7EA6002990B22EA
:103480002368204610399B689847013000F0C680B9
:103490002368042220465E680DEB02010123B04739
:1034A00001285DD0124882E718B2010844B2010831
:1034B00088B0010814B201081CB20108D8B1010893
:1034C000C8B3010820B2010824B2010828B20108DB
:1034D0002CB2010800B1010830B20108FCB10108AA
:1034E000F0B101083CB2010834B20108F8B101089A
:1034F00040B20108226802A9204656680422B0475B
:10350000012840F0978095F824307BB99DF8082079
:103510009DF80B308DF80B208DF808309DF80920B0
:103520009DF80A308DF80A208DF8093002990B2297
:103530002046002901F00103B8BF5B42194423680B
:1035400002919B68984701304FF0010370D02268C8
:103550002046566804220DEB0201B047012865D1D0
:10356000042237490DEB020016F00DF90123002863
:10357000C0D121680123042220464E6804A9B04727
:10358000012849D195F824307BB99DF810309DF879
:1035900013109DF811208DF813309DF812308DF81E
:1035A00010108DF812208DF81130BDF90210204650
:1035B000049B2A6A93FBF1F3B3FBF2F32268DB006E
:1035C0001268AB609047002295F82430E8612A71B8
:1035D0000BB901232B7101231A486B71E7E61A48D6
:1035E000E5E61A48E3E6BDF90230202B24D0402B53
:1035F0007FF4D7AE2023EB6040E7BDF90230082B03
:103600003FF43BAF102B0ED0182B09D0202B7FF4AA
:10361000C8AE0823EB6031E70D48C8E60D48C6E6A2
:103620000423EB602AE70223EB6027E70A48BEE6A3
:103630000A48BCE60A48BAE61023EB601EE700BF62
:103640004CB2010804B20108F4B1010800B201084B
:1036500010B2010870B0010838B201080CB20108BC
:1036600008B2010800F086B938B5044600F0A2F9A6
:10367000D4F8A450204600F0B9F9284601F010FC17
:10368000D4F8A850204600F0B1F92846BDE83840EB
:1036900001F006BC38B5044600F070F9D4F8A45027
:1036A000204600F0A3F9284601F0FAFBD4F8A85010
:1036B000204600F09BF92846BDE8384001F0F0BBF9
:1036C000183002F0F5B800BF10B504463C3001F0E8
:1036D00043FC04F1AC0001F027FE04F1BC00BDE89E
:1036E000104001F021BE00BFF0B504468DB014209B
:1036F000012500F029F90346132004F1D407ADF8A1
:103700000C3000F021F90346122004F5947406AE43
:10371000ADF8103000F018F90399ADF814003846F0
:103720000095DDE9042301F099FD112000F00CF96A
:1037300003461820ADF80C3000F006F9ADF8100083
:10374000172000F001F9ADF81400059B2046049AFB
:103750000399009509AD01F081FD3046072105F080
:10376000B1FA96E8070085E807002946384601F0D7
:103770009DFD96E8070085E807002946204601F0F0
:1037800095FD384601F0A8FD20460DB0BDE8F0409B
:1037900001F0A2BD2DE9F04104461520002504F1F9
:1037A000180704F1A4062DED028B8EB09FED1E8A42
:1037B00000F0CAF8034605A8ADF80C30039901F0F3
:1037C00085FE0F2000F0C0F803460DF12500ADF88E
:1037D0001030049901F07AFE0423022205A938462C
:1037E00001F082FE04F1640204F18403C4E9292398
:1037F0002946384656F8048B02F070F801462046F8
:10380000019100F0F3F80023F0EE480A01994046D8
:103810001A4601F0EFFA25B10EB0BDEC028BBDE8FF
:10382000F0810125E4E700BF6F12033B70B59FED07
:10383000420A8EB004468DED010A009100F082F834
:103840000099204600F03EF91B2000F07DF8034669
:1038500004F1AC069DED010AADF8143004F1BC058D
:10386000059930468DED000A01F044FD1C2000F062
:103870006BF8ADF818009DED000A2846069901F096
:1038800039FD1A20C4E9336500F05EF803461920BB
:103890000025ADF80C3000F057F803460D2004F574
:1038A0001046ADF8103000F04FF8ADF81C0004F1F0
:1038B0003C009DED000A049A0399079B01F01CFB54
:1038C0002046FFF711FF2046FFF764FF01231B4A44
:1038D00049F22C20099307A90C9347F612232044A0
:1038E0000A950D93022308950B93154BC6E989524F
:1038F000079304F001F90A23C6F818523021C6F8DC
:103900001452204684F8843184F8805100F052F833
:10391000D4F8A450204600F069F8284601F0C0FA17
:10392000D4F8A850204600F061F828460EB0BDE853
:10393000704001F0B5BA00BF0000000001070106A9
:1039400001060107704700BF202882B009D8084B44
:1039500003EB400213F81030507843EA002002B025
:10396000704701230C2043EA002002B0704700BFDB
:1039700064B20108143001F009BA00BF38B500F193
:10398000140504462DED028B284601F0BBF92846AC
:1039900001F0B4F92846B0EE408A01F09DF9D0ED6F
:1039A000007AF8EE677A88EE277ABDEC028B84ED18
:1039B0000E7A38BD38B500F1140504462DED028BA2
:1039C000284601F08DF9284601F098F92846B0EE16
:1039D000408A01F081F9D0ED007AF8EE677A88EE3E
:1039E000277ABDEC028B84ED0E7A38BD90ED0E0A7D
:1039F000704700BFF0B5032399B00027012512934B
:103A000006462C4B09A81595CDE90E7340F20453D8
:103A1000ADF84030284BCDE91357099302F060F818
:103A200009A802F039F9002836D1244B04AF044626
:103A30000090CDF842301023394604958DF820309F
:103A40001F4BCDE91650CDE906506846059302F0AC
:103A5000B1FA0823009A01A909A8ADF804508DF81D
:103A6000064009940295039300F0E4F800230EA9A0
:103A700038463024049303F067F803224FF07E5356
:103A800009A906F114000B930C93CDE90942049A9D
:103A900001F0EAF819B0F0BD40F60132074B169775
:103AA00004AFADF824200998CDF84230179500F006
:103AB00081F8DBE7040204040303000104060403A5
:103AC0000704010B2DE9F04304462DED028B83B072
:103AD000002948D0012140F2011200230091ADF8E5
:103AE00004208DF80630304A0126304B271D30491E
:103AF00004F12908626040F20272A36040F6066396
:103B0000E16004F125092682A4F8252084F82760C5
:103B1000A4F8293084F82B6004F072FB694605464E
:103B200048B304F130008DF8066004F0C7FA072DA1
:103B300034D104F114052046FFF75CFF284601F05C
:103B4000DDF82846B0EE408A01F0C6F8D0ED007AE4
:103B5000F8EE677A88EE277A84ED0E7A03B0BDEC32
:103B6000028BBDE8F08340F2011300918DF806103E
:103B7000ADF80430B7E704F1300004F09FFA39469D
:103B8000204602F061FC484601F0AAFF404601F0E1
:103B9000A7FF04F1120000F077F9CAE73946204682
:103BA00002F052FCC5E700BF050805090507050638
:103BB000050A060610B584B003460124ADF80400DA
:103BC00003A8ADF80C30ADF80E4001F089FF214696
:103BD00003A802F06FF8204604F0A4F9002103A81E
:103BE00002F068F8204604F09DF9214603A802F08F
:103BF00061F804B010BD00BF10B5C2F3002384B05B
:103C00000C46017C8DF80D2043EA4402FA2402237D
:103C10008DF80C2003AA009402F062FA18B1012476
:103C2000204604B010BD04460A2004F07BF920466B
:103C300004B010BD034670B543F8042B044684B0AD
:103C400007C983E80700A37983B91A210B461E220E
:103C5000FA2523742046ADF80C20022303AA009510
:103C600002F03EFA28B1012004B070BD1B210B46C2
:103C7000EDE70A2004F056F94FF4B85200950223FC
:103C8000ADF80C20204603AA217C02F029FA002876
:103C9000E9D10A2004F046F941F2027200950223AC
:103CA000ADF80C20204603AA217C02F019FA002866
:103CB000D9D10A2004F036F9042200950223ADF888
:103CC0000C20204603AA217C02F00AFA0028CAD15F
:103CD0000A2004F027F9062200950223ADF80C20F3
:103CE000204603AA217C02F0FBF90028BBD10A2060
:103CF00004F018F941F2082200950223ADF80C20D7
:103D0000204603AA217C02F0EBF90028ABD10A205F
:103D1000064604F007F90095022303AA217C2046F9
:103D2000ADF80C6002F0DCF900289CD1304604F0BC
:103D3000F9F8009522790C232046002A8DF80C30E2
:103D400003AA4FF0020314BF622142218DF80D1027
:103D5000217C02F0C5F9002885D1304604F0E2F854
:103D60002279D4E902310B43DBB20AB943F04003B4
:103D700062790AB143F020030E22FA258DF80D3046
:103D80002046009502238DF80C2003AA217C02F026
:103D9000A7F900287FF467AF0A2004F0C3F81022C7
:103DA00000950223ADF80C20204603AA217C02F0E6
:103DB00097F900287FF457AF0A2004F0B3F81221D6
:103DC00000950223ADF80C1003AA217C204602F0D6
:103DD00087F900287FF447AF0A2004F0A3F80122F6
:103DE00009212046FFF708FF003818BF01203BE7F4
:103DF000F0B5102387B0234C0122002501260027AF
:103E000002A920460195CDE902234FF48052CDE965
:103E100004670CF009FF642005F010FB02A94FF4C1
:103E200080522046CDE9046702261027CDE90267BB
:103E30000CF0FAFE0322102302A92046CDE902234A
:103E400000230422CDE904234FF480520CF0ECFE51
:103E500040F23223042202A9019310232046CDE927
:103E60000223019A012305924FF4805204930CF02F
:103E7000DBFE40F6060120460CF0F6FE284607B0B1
:103E8000F0BD00BFD8B300241C4B00221C494FF0EA
:103E9000400C30B5054689B00220596007219A6070
:103EA0001A620124DA620A224FF4006EDC60069284
:103EB0002022CDE9000104200821CDE902010320E0
:103EC0001021CDE9040108206946C3E904024FF43A
:103ED000C072181DC3E906C24FF48052C3E909E25B
:103EE0000CF078FE38B92846FFF782FF003818BF7B
:103EF000012009B030BD204609B030BDD4B3002444
:103F000040410052614A0021D0B513688EB00A9139
:103F1000002B40F0B9805E4B01214FF683700C24DA
:103F200011600221D3F8D4200026032742F48052E6
:103F3000C3F8D420D3F8D42002F480520092009A1F
:103F4000D3F8E02042F01002C3F8E020D3F8E020DC
:103F500002F010020192019AD3F8E02042F04002F0
:103F6000C3F8E020D3F8E02002F040020292029A67
:103F7000D3F8E02042F00802C3F8E020D3F8E020B4
:103F800002F008020392039AD3F8E02042F4807210
:103F9000C3F8E020D3F8E02002F480720492049A7F
:103FA000D3F8E02042F08002C3F8E020D3F8E0200C
:103FB00002F080020592059AD3F8E02042F0200238
:103FC000C3F8E020D3F8E02002F020020692069A1F
:103FD000D3F8E02042F00402C3F8E020D3F8E03048
:103FE0000C9403F0040307930323079A0B93CDE982
:103FF000080108A9274807F0A7F848F2371202235A
:1040000008A925480C94CDE90823CDE90A6707F0F3
:104010009BF84CF20372022308A920480C94CDE9C6
:104020000823CDE90A6707F08FF840F2FF62022308
:1040300008A91B480C94CDE90823CDE90A6707F0CD
:1040400083F84FF60C72022308A916480C94CDE9A8
:104050000823CDE90A6707F077F84FF63F020223FD
:1040600008A911480C94CDE90823CDE90A6707F0A7
:104070006BF82022022308A90A480C94CDE90A67AC
:10408000CDE9082307F060F80EB0D0BDD0B300240E
:10409000004402580010025800180258000C025840
:1040A00000200258001C0258001402582DE9F04F5D
:1040B000DFF8108406460D46144608F118002DED71
:1040C000028B89B000AF02F037FED8F8183073B316
:1040D000D8F81C30D8F80490002B43690BBF4FF080
:1040E000080A4FF0100A4FF0020B4FF0040BB9F121
:1040F000000F2AD0A200EA46012B02F1070222F0AB
:104100000702ADEB020D6846ADEB020D694600F00B
:104110003F81022B00F0D680002B6FD02246C8478B
:10412000D5462437BD46BDEC028BBDE8F08FD8F8EC
:104130001C30002BF5D0D8F804904FF0080A4FF04F
:10414000020B4369B9F1000FD4D1FB61D8F80030FC
:10415000BB61002BE5D0D54802F060FE6B46BBF199
:10416000020F786108EE103AFB6900F083816A461D
:104170005146A2EBC40295466200EA46B2FBFBF24E
:10418000AAEBC40085460AEB8200EE46F861ADEB6F
:10419000010DF8690EEB820CC7F810C0EC46ADEBD0
:1041A000010D00EB8201CCF80400CCF8081001EB03
:1041B00082013869E946CCF80C1000EB8201CCF89A
:1041C00000A001EB8202C9E900E0C9E90212012B5B
:1041D00000F06483022B00F06C82002B00F08081E1
:1041E000620849466046BB69984718EE103A243782
:1041F0009D46BD46BDEC028BBDE8F08F002C8DD0F6
:104200001A46D8ED0C6A9FEDB27A8446331D36F912
:1042100022E00CF1080C07EE90EA33F922E00232BA
:10422000F8EEE77A944267EE877A67EEA67A4CED6D
:10423000027A07EE90EAF8EEE77A67EE877A67EEA1
:10424000A67A4CED017AE2D8F9612246C847984E29
:10425000D8ED0D6A0020F9692B1D9FED9E7A9FED28
:104260009E6ADFED9E5A22E0F4EEC67AF1EE10FA75
:10427000C0F2C88447F6FE72D1ED017A45F82020DD
:1042800066EEA77AF4EEC77AF1EE10FA40F2F0800B
:10429000F4EEC67AF1EE10FAC0F2D58447F6FE725B
:1042A00043F820200230083184427FF639AFD1ED47
:1042B000007A66EEA77AF4EEC77AF1EE10FAD3D858
:1042C0003246D9E7002C3FF429AFD8ED0C6A84467A
:1042D0009FED787A0022331D8E4656F822100CF19D
:1042E000080C07EE901A53F822100232F8EEE77A23
:1042F000944267EE877A67EEA67A4CED027A07EE73
:10430000901AF8EEE77A67EE877A67EEA67A4CEDB8
:10431000017AE2D871462246C7F81CE0C847664ECB
:10432000D8ED0D6A0020F9692B1D9FED6A7A9FED8B
:104330006A6ADFF894C120E0F4EEC67AF1EE10FA72
:10434000C0F279843246D1ED017A45F8202066EE3C
:10435000A77AF4EEC77AF1EE10FA40F28780F4EE15
:10436000C67AF1EE10FAC0F25E84324643F820209D
:104370000230083184427FF6D3AED1ED007A66EE8A
:10438000A77AF4EEC77AF1EE10FAD5D86246DAE7EA
:10439000002C3FF4C3AED8ED0C6A86469FED477AF9
:1043A0004FF0000C331D56F82C200EF1080E82F44D
:1043B0000002A2F5000207EE902A53F82C200CF11F
:1043C000020CF8EEE77A82F400026445A2F50002DE
:1043D00067EE877A67EEA67A4EED027A07EE902AAC
:1043E000F8EEE77A67EE877A67EEA67A4EED017A05
:1043F000D9D8F9612246C847314ED8ED0D6A002060
:10440000F9692B1D9FED337A9FED336ADFF8BCC04D
:104410001FE0F4EEC67AF1EE10FAC0F2FC833246E9
:10442000D1ED017A45F8202066EEA77AF4EEC77A3E
:10443000F1EE10FA18D9F4EEC67AF1EE10FAC0F2E5
:10444000DA83324643F820200230083184427FF676
:1044500067AED1ED007A66EEA77AF4EEC77AF1EE98
:1044600010FAD6D86246DBE76246EBE762467DE7A4
:10447000324615E7A100D6466208073121F0070150
:10448000ADEB010DEA46ADEB010D6946ADEB0E0D4E
:104490000AEB8200EC46ADEB0E0D01EB8202F861F7
:1044A000E946CCE900A0C9E9001290E628B400244E
:1044B0000280FFFF000000300082FF7F0000003418
:1044C00082FF7F000CB40024007E00807E0080FF0D
:1044D0000000003804FF7FBF04FF7F3F00FEFF465F
:1044E000002C00F0C982BBF1020FD8F8242000F0A4
:1044F000FA827969C7F8049002EB810E5FED0C5ADD
:104500008A00DCF808100EF104007A611A46DCF823
:104510000C303B61331DD7F810903D61FD69C7E950
:1045200002CB8C46834636F92210D8ED0C7A06EE83
:10453000101A33F9221006EE901A3EF92210B8EE46
:10454000C66A07EE101AF8EEE66A3BF92210B8EEDA
:10455000C77A26EE256A66EEA56A27EE257A26EE4C
:10456000276A66EEA76A27EE277A07EE901A5108A7
:104570000232F8EEE77A0AEB8100944280ED006A9D
:1045800005EB810067EEA57AC0ED006A0CEB8100B7
:1045900009EB810180ED007A98ED0C7A67EE877A5D
:1045A000C1ED007ABFD8D7F804903D69D7E902CBB6
:1045B00060466208BB6949469847D8F82C307A694A
:1045C000D8ED0D6A1A441FED3D7A1FED3D6A2B1D93
:1045D000904602F1040A5FED3F5A0022A84ED9E945
:1045E00000EC51E0F4EEC67AF1EE10FAC0F2C782A8
:1045F00047F6FE7045F822000CEB0100D0ED007A82
:1046000066EEA77AF4EEC77AF1EE10FA4BD9F4EE23
:10461000C67AF1EE10FAC0F2BA8247F6FE70BBF12C
:10462000020F43F822002BD0D9F808000844D0ED3F
:10463000007A66EEA77AF4EEC77AF1EE10FA36D970
:10464000F4EEC67AF1EE10FAC0F2CD8247F6FE70B3
:1046500048F82200D9F80C000144D1ED007A66EE4A
:10466000A77AF4EEC77AF1EE10FA1ED9F4EEC67A04
:10467000F1EE10FAC0F2AF8247F6FE714AF822104E
:10468000023294427FF6B1AD51080EEB81008900F1
:10469000D0ED007A66EEA77AF4EEC77AF1EE10FA62
:1046A000A0D83046A6E73046B9E73146E6E73046BF
:1046B000CEE7002C00F0E081BBF1020FD8F82430E7
:1046C00000F0E1817A69DCF8081003EB820EC7F88C
:1046D00004909300DFED6B5A0EF1040000227B6121
:1046E000DCF80C303B61331DD7F810903D61FD695B
:1046F000C7E902CB8C46834656F82210D8ED0C7AD7
:1047000007EE101A53F82210B8EEC76A07EE101A17
:104710005EF82210F8EEC76A07EE101A26EE256A38
:104720005BF82210B8EEC77A66EEA56A26EE276A15
:1047300027EE257A66EEA76A27EE277A07EE901A0B
:1047400051080232F8EEE77A0AEB8100944280EDDC
:10475000006A05EB810067EEA57AC0ED006A0CEBFC
:10476000810009EB810180ED007A98ED0C7A67EE0B
:10477000877AC1ED007ABFD8D7F804903D69D7E9B0
:1047800002CB60466208BB6949469847D8F82C308E
:104790007A69D8ED0D6A1A449FED3E7A9FED3E6A24
:1047A000131D9246DFF8E4C00022FB612B1D364E3C
:1047B000D9E9008E4EE0F4EEC67AF1EE10FAC0F2BE
:1047C000FC81304645F822000EEB0100D0ED007A66
:1047D00066EEA77AF4EEC77AF1EE10FA49D9F4EE54
:1047E000C67AF1EE10FAC0F2EF813046BBF1020F4B
:1047F00043F822002AD0D9F808000844D0ED007A06
:1048000066EEA77AF4EEC77AF1EE10FA35D9F4EE37
:10481000C67AF1EE10FAC0F2C98130464AF8220099
:10482000D9F80C000144D1ED007A66EEA77AF4EED7
:10483000C77AF1EE10FA1ED9F4EEC67AF1EE10FA4C
:10484000C0F2AD813146F86940F82210023294423C
:104850007FF6CBAC510808EB81008900D0ED007ADF
:1048600066EEA77AF4EEC77AF1EE10FAA3D86046A6
:10487000A8E76046BAE76146E5E76046CEE700BFD5
:104880000280FFFF000000300082FF7F007E00807A
:104890000000003404FF7FBF04FF7F3F002C00F0C6
:1048A000EB807A690021D8F82430C7F8109003EB28
:1048B000820ED7F81C909300FD610EF104021FEDEB
:1048C0000C6A7B61331D154656F821204808D8ED47
:1048D0000C6ABBF1020F82F40002A2F5000207EE9F
:1048E000902A53F8212082F40002B8EEE77AA2F56C
:1048F000000227EE067A07EE902A0AEB8002F8EE15
:10490000E77A27EE267A67EE867A82ED007A09EB5F
:1049100080024FEA800067EEA67AC2ED007A27D0C7
:104920005EF8212082F40002A2F5000207EE902A30
:1049300055F8212082F40002B8EEE77AA2F50002D1
:1049400027EE067A07EE902ADCF80820F8EEE77AE0
:10495000024427EE267A67EE867A82ED007A98ED99
:104960000C7ADCF80C2067EE877A0244C2ED007AFC
:1049700002318C42A8D8D7F8109060466208BB6913
:104980004946FD699847D8F82C307A69D8ED0D6A08
:104990001A441FED407A1FED406A131D9246DFF85E
:1049A000C4C20022FB612B1DAB4ED9E9008E4EE044
:1049B000F4EEC67AF1EE10FAC0F2C580304645F842
:1049C00022000EEB0100D0ED007A66EEA77AF4EE3D
:1049D000C77AF1EE10FA49D9F4EEC67AF1EE10FA80
:1049E000C0F2BF803046BBF1020F43F822002AD04C
:1049F000D9F808000844D0ED007A66EEA77AF4EE04
:104A0000C77AF1EE10FA35D9F4EEC67AF1EE10FA63
:104A1000C0F2AE8030464AF82200D9F80C000144BA
:104A2000D1ED007A66EEA77AF4EEC77AF1EE10FACD
:104A30001ED9F4EEC67AF1EE10FAC0F28B80314640
:104A4000F86940F82210023294427FF6CEAB51084A
:104A500008EB81008900D0ED007A66EEA77AF4EECB
:104A6000C77AF1EE10FAA3D86046A8E76046BAE725
:104A70006146E5E76046CEE7224649466046BB69A7
:104A80009847FFF7B2BBC7F810B0002298ED0C6A48
:104A9000331DDFED726AD7F81CB0786956F8221022
:104AA00007EE901A53F82210B8EEE77A07EE901A44
:104AB00051080232F8EEE77A27EE267A0AEB810EE9
:104AC00094420BEB810167EEA67A27EE067A67EE39
:104AD000867A8EED007AC1ED007ADFD88300D7F8B0
:104AE00010B07B614DE61A46C7F810B098ED0C6A1D
:104AF000331DDFED5B6AD7F81CB0786936F92210F8
:104B000007EE101A33F9221007EE901AB8EEC77AA2
:104B100051080232F8EEE77A27EE267A0AEB810E88
:104B200094420BEB810167EEA67A27EE067A67EED8
:104B3000867A8EED007AC1ED007ADFD88300D7F84F
:104B400010B07B6134E5F0EE675AFEEEE45A15EEE4
:104B5000900A34E7F0EE675AFEEEE45A15EE901A2A
:104B60006EE7F0EE675AFEEEE45A15EE900A3AE769
:104B7000F0EE675AFEEEE45A15EE900A4BE767EE48
:104B8000A57AFDEEE77A17EE900A00B232E567EEFD
:104B9000A57AFDEEE77A17EE900A00B23FE5F0EE57
:104BA000675AFEEEE05A15EE901A4CE6F0EE675AA0
:104BB000FEEEE05A15EE900A30E6F0EE675AFEEE91
:104BC000E05A15EE900AFDE5F0EE675AFEEEE05A67
:104BD00015EE900A0AE667EEA57AFDEEE77A17EE83
:104BE000901A09B24AE567EEA57AFDEEE77A17EE6C
:104BF000900A00B22CE5F0EE675AFEEEE45A15EE8C
:104C0000902A1FE467EEA57AFDEEE77A17EE902A68
:104C100012B2FFF731BBF0EE675AFEEEE45A15EE22
:104C2000902AFFF7FDBBF0EE675AFEEEE05A15EE54
:104C3000902AFFF79BBBF0EE675AFEEEE05A15EEA6
:104C4000902AFFF780BB67EEA57AFDEEE77A17EEB4
:104C5000902A12B2FFF724BB82FF7F0000000030D1
:104C6000000000387E0080FF30B5184C154685B036
:104C7000046004F1080EEC460FC98EE80F00D4ED75
:104C8000047AF5EEC07A8CE80F00F1EE10FA1ADD26
:104C9000B7EE006A94ED057A27EE277AC6EE276A0A
:104CA00084ED0D7AC4ED0C6A6DB1204640F8185FB2
:104CB00002F042F8064903690020064A2162A26216
:104CC000E36005B030BD012005B030BD0CB4002458
:104CD000002000300000003000680830704700BF3E
:104CE000B1F5807F03680A4628BF4FF48072B1F5A2
:104CF000807F9A6094BF00200120704700681830C0
:104D000002F07AB870B504688AB0A369E160CBB1EB
:104D100004F11805284602F00FF88446EE46E668CE
:104D2000BCE80F00AEE80F00BCE80F00AEE80F00D3
:104D30009CE803008EE8030069462846049601F0CB
:104D400003FFF8B9E069D8B104F11C05284601F069
:104D5000F3FF8446EE46E468BCE80F00AEE80F00BF
:104D6000BCE80F00AEE80F009CE803008EE80300EB
:104D700069462846049401F0E7FE003818BF012078
:104D80000AB070BD01200AB070BD00BF30B5046824
:104D900083B00D46E3694BB1A3680020E26A616A03
:104DA0009B00009004F11C0001F0C8FFA3680748B5
:104DB000A26A9B00216A009004F1180001F0BEFF76
:104DC0000020C4E9005003B030BD00BFAD40000872
:104DD00010B4074B4FF07E5130240022032019619C
:104DE0009C60D8605DF8044B5961C3E906227047A6
:104DF0000CB40024F6EE007A9FED166A20EE207ABD
:104E00000160F7EE006A80ED036A80ED020A27EE8A
:104E1000277AC6EE877AF4EEE67AF1EE10FA11DD23
:104E2000F0EE667A4FF07E514FF0000C02760022D1
:104E3000C0ED017AC0F814C0016143768276C0EDFE
:104E4000070A7047F4EEC67AF1EE10FAEAD5F0EEF2
:104E5000467AE7E7000000000268037E128807EE4A
:104E6000902AFBEEC87A1BB1B7EE007A77EE677A2C
:104E7000D0ED056A90ED047A77EEE67A437E67EE30
:104E8000877A0BB1F1EE677A90ED030A90ED017A23
:104E900077EEC07AA7EE270A80ED030A704700BFBD
:104EA000837E80ED020AABB9D0ED077A27EE800A47
:104EB000F6EE007AB7EE007A20EE270AC7EE007A07
:104EC000F4EEC77AF1EE10FA07DDF0EE477AC0EDA6
:104ED000017A7047DFED067AE8E7F5EEC07AF1EE89
:104EE00010FAF4D5DFED037AC0ED017A704700BF08
:104EF0006F12033B0000000030B585B0044600256A
:104F0000ADF80C10ADF80820ADF8043003F008F847
:104F1000BDF80C204FF48073206004F11800228348
:104F2000BDF808206383E383A283257100F0D8FDD8
:104F300004F11C0000F0D4FD9FED060A019904F174
:104F4000080000F0D7F94FF6FF736562238405B0BF
:104F500030BD00BF00000000F8B5044602F0E0FFDD
:104F6000002623682671834205D104F10800BDE8BC
:104F7000F84000F0D9B9012794F82050206004F1DE
:104F80001800BD40277100F087FE6DB2284394F8E9
:104F90002150BD4084F8200004F11C0000F07CFE8C
:104FA00094F820306DB2666203F003032843022BAD
:104FB000C0B284F8210009D000F003000228D4D147
:104FC000002BD2D14FF0FF336362CEE78307CCD101
:104FD0006762CAE7704700BFF8B5134F3C687F2C83
:104FE00007D98023114A42F224411C463B60A2F8B3
:104FF0007E100F4D2B68012B0AD90C4E0D4D224609
:105000003146284600F046FA0028F8D13860F8BD4D
:1050100022460649074800F03DFA0028F7D12B68E0
:10502000386001332B60F8BD48B400244CB4002430
:1050300044B40024CCB4002430B4154C2168F1B140
:105040004B1E144DE81810F801298C4619460A2AFF
:1050500001D00D2A02D14BB1013BF4E70CF1020360
:105060007F2B10D98023236030BC7047012202239C
:1050700023600D200A236854AB5430BC70470122D2
:105080000223044DF4E70CF101026146F0E700BF92
:1050900048B400244CB4002410B5094C02460B4619
:1050A000084821680844C1F1800114F0ABFC236872
:1050B00018442060FFF7C0FFFFF78EFF10BD00BF50
:1050C00048B400244CB400240FB400B583B004A944
:1050D00051F8040B0191FFF7DFFF03B05DF804EB1B
:1050E00004B0704710B5044600210A4800F04CF99E
:1050F000002C094B14BF0222002208481A60FFF757
:10510000E3FF0748FFF7E0FF0A20BDE8104002F088
:1051100009BF00BFCCB4002444B40024A8B20108E5
:10512000B8B20108064A0749074808B513F02EFD32
:10513000034A04490548BDE8084013F027BD00BFF5
:1051400000000024D54F0008CCB40024D0B40024C3
:10515000DFED167A8C46B4EE670A10B50446864633
:10516000F1EE10FA2DED028B80ED080A48BFB0EE8B
:10517000670AC0ED090AB0EE608A80F83420BCE806
:105180000F00AEE80F009CE80F008EE80F0013F050
:10519000BBFEF0EE407AB0EE480AC4ED0A7A13F096
:1051A000B3FE84ED0B0ABDEC028B10BD95BFD63368
:1051B00090F8343010B50446032B4BD8DFE803F0E9
:1051C0003B2A1502FFF748FE60EE006AD4ED087A2C
:1051D00094ED097A26EE800A37EE677AE0EE077AD8
:1051E000C4ED0C7AB0EE670A10BDFFF735FE94ED02
:1051F0000A7AD4ED0B7A77EEC77AA0EE277AB0EE72
:10520000470A13F00FFEF0EE407A84ED0C0AB0EE80
:10521000670A10BDFFF720FED4ED087A94ED097AF5
:1052200020EE000A37EE677AE0EE077AB0EE670A02
:10523000C4ED0C7A10BDFFF70FFED4ED087A94EDA3
:10524000097A37EE677AE0EE077AB0EE670AC4EDC6
:105250000C7A10BDD0ED0C7AC4E700BF30B585B034
:1052600004469FED110A9DF82050ADF80C100399EB
:10527000ADF808202A46ADF804308DED000A11F093
:1052800081FA9DED000A2A46029904F11C0011F0F2
:1052900079FA9DED000A2A46019904F1380005B01B
:1052A000BDE8304011F06EBA00007A4438B50C46C3
:1052B000054691ED000A11F089FA94ED010A05F115
:1052C0001C0011F083FA94ED020A05F13800BDE8E4
:1052D000384011F07BBA00BF10B5044611F088FACF
:1052E00004F11C0011F084FA04F13800BDE810400C
:1052F00011F07EBA70B5044682B0C1F30726CDB274
:10530000ADF8041002F00CFE4FF480724FF0012350
:105310002060A01DA571A280E671A36002B0BDE867
:10532000704000F0DDBB00BF38B5044602F0F8FD68
:10533000002223682271834210D00122A57AE37AE9
:10534000954020602271A01D6DB243B900F0A4FC0D
:1053500040B22843C0B27F28A0720AD038BD00F006
:105360009BFCB0FA80F040092843C0B27F28A072AD
:10537000F4D102F0D5FD07EE900AF8EE677AC4ED9D
:10538000037A38BD704700BF012910B506D0022945
:1053900015D051B1BDE8104007F02EBE0A46344882
:1053A000344910F00BF8E8B1FEE7334B0A46334CB2
:1053B000334934481C6010F001F868B1FEE701225F
:1053C0002C492B480FF0FAFF00B1FEE72E49284880
:1053D00010F016F8C0B1FEE72B492A4810F010F87B
:1053E00060B1FEE72849224810F00AF800B1FEE754
:1053F00026491F480FF092FF08B3FEE724492148D1
:105400000FF08CFFA8B1FEE7204919480FF086FF86
:1054100000B1FEE7164810F009F8024640B9164BF5
:10542000164C174917481C600FF0C8FF68B1FEE71B
:10543000FEE714480FF0FAFF0028ABD0FEE70C4857
:105440000FF0F4FF0028A5D0FEE70F490D480FF03C
:10545000D7FF00B1FEE70E490A480FF05FFF00B129
:10546000FEE708480FF0E2FF002893D0FEE700BFF8
:1054700070B70024F40200240CBA002485530008FD
:10548000D8020024D4B400245C030024B802002411
:10549000A8020024084691B208B502F0EBFF0038DC
:1054A00018BF012008BD00BF014807F083B800BF46
:1054B000B8FD0024014807F07DB800BFB8FD002406
:1054C000014807F077B800BFB8FD002482B04FF064
:1054D000000C0323ADF80410BDF8042080F810C0C0
:1054E0000280438002B070472DE9F04FBE4E002588
:1054F0008FB0BE4C037006F1400342600746019234
:105500008846202229463046C4F85831C4F85461F0
:10551000CDE90355CDE90555CDE90755CDE9095547
:10552000CDE90B5513F0A0FF2022294604F5997010
:10553000C4F82151C4F82551C4F82951C4F82D519B
:1055400013F092FF019B84F8385284F820317A6876
:10555000002A5FD02B464146B64604F59075994621
:105560004FF0010A03EB0310D1F800B0D1F804802A
:105570000133D1F808C02218CE6844F800B0C2F850
:105580000480C2F808C0D660087C2EF8029B107414
:105590000A7C05F8012F002A69D07A68113184F855
:1055A00038A29A42DED84FF4802291489DF8043008
:1055B00008214FF000084FF00009C4F874310023AF
:1055C000C4E957020122C4F8643184F87031C4E997
:1055D0005A2194F83812C4E9608981B3C4F888214B
:1055E000002284F8713184F878313B78C4E9632271
:1055F000A3B3012200200121013B84F89421C4E9D6
:105600006801082B2CD8DFE803F0ABB0B5BABFC4F3
:10561000C9CFD6009DF804300121C4F86421C4F834
:1056200074314FF4802384F87021714AC4E9572300
:1056300008230022C4E95A130023C4E9602301238C
:10564000002284F87131002384F878310323C4F8F0
:1056500088313B78C4E96322002BCAD184F89431A5
:10566000644804F023FB034638B1FFBEFEE77A68C6
:1056700011319A423FF676AF95E703A95D4803934F
:1056800004F072FC0546002868D1022240F2FF7344
:10569000CDE9082300230422CDE90A2394F8203120
:1056A000002B00F0D5804FF0060921E0022B00F01E
:1056B0008980012B40F0C4809AF80130012B00F062
:1056C000C180002B4C4B18BF002306A94948CDE9E7
:1056D000063903F017FF002840F0BF80013594F829
:1056E0002031EDB2AB4240F2B380444B53F82590E9
:1056F0002FB207EB071704EB070A504600F0F0F94A
:1057000005EB051323441B7C042B7DDC022B00F3EB
:10571000918000F08D806319002283F81021E35DF1
:10572000002BC3D19AF80130062B00F08580072B9F
:1057300000F08A80022B00F09680032B00F0958009
:10574000002B00F09680012B00F09180042B00F0DC
:105750009280052B2A4B18BF0023B6E7FFBEFEE759
:1057600003224023C4E966237AE707226023C4E9C1
:10577000662375E70F228023C4E9662370E71F22A2
:10578000A023C4E966236BE73F22C023C4E9662354
:1057900066E77F22E023C4E9662361E7FF224FF436
:1057A0008073C4E966235BE740F2FF124FF4907305
:1057B000C4E9662354E740F2FF324FF4A073C4E912
:1057C00066234DE79AF80130042B37D0052B3DD0E6
:1057D000002B40D0012B42D0022B42D0032B094B8F
:1057E00018BF002371E700BF0040003018BA002442
:1057F0000020024074BB00240002B025C8B201089A
:105800000000B84F0020903603233E1D04EB05082E
:105810004FF0000B264488F8103130460BF1010B95
:1058200000F05EF998F8103104365B45F5DC76E758
:105830000123EAE70223E8E7104B46E7104B44E771
:10584000002342E70F4B40E70F4B3EE70F4B3CE78F
:105850000FB0BDE8F08F0E4B37E7FFBEFEE70D4BF4
:1058600033E70D4B31E70D4B2FE70D4B2DE70D4B7C
:105870002BE70D4B29E70D4B27E700BF0800900CE5
:105880001000C0102000F0148000501D0001802185
:105890000004002A0008302E001060320040C03A98
:1058A0000080F03E00005247000021430000844B7E
:1058B00038B5094C40F2FF724FF0011104F5AE7596
:1058C000284604F0FFFA94F82021D4F85411284611
:1058D000BDE8384004F06AB818BA0024034B0F2919
:1058E000D3F8540198BF00EB4100704718BA002468
:1058F000214B02689A4200D07047204A002320487A
:10590000D2F8D81030B51F4C41F0200183B0C4F854
:10591000C001092004F5E075C4E971034FF480600B
:10592000C2F8D810D2F8D8204FF40061C4E973301F
:1059300094F8380202F02002C4F8D4114FF4005158
:10594000984201922846C4F8D811C4E97833019BE3
:1059500014BF00234FF48073C4F8DC3104F02AFD37
:1059600008B1FFBEFEE704F5AE73C4F8A851C4F851
:10597000F83103B030BD00BF00200240004402589F
:105980004000024018BA0024014805F08BB800BF5F
:10599000D8BB002402682DE9F84F4B4B9A4201D046
:1059A000BDE8F88F494D95F83832002BF8D095F8BE
:1059B0002031002B77D0002405F10C0905F59976EC
:1059C00005F59077A04613E003F0010117F811BC2C
:1059D000A9F1080000F06EF9BBF1010F25D895F888
:1059E0002031013409F111090236A2B293422BD9B8
:1059F00017F8012F002AF4D0D5F85431002132785D
:105A000033F81400D5F8583103EB041323F81200CF
:105A1000338801339BB233805FFA83FA3A789A4233
:105A2000D2D88A46A6F80080D0E7CAF34001A9F18F
:105A3000040000F03FF9BBF1020FCAF38001CED0A1
:105A4000484600F037F9CAE7002395F838022049A4
:105A500009229842C5F8C8314FF48060C5F8C011DA
:105A6000C5F8C4214FF400614FF40052C5F8CC31A1
:105A700008BF4FF48073C5F8D821C5E9740100222E
:105A80001448C5E97732C5F8E42104F093FC08B165
:105A9000FFBEFEE795F82021D5F854110E48BDE869
:105AA000F84F03F083BF0A4909224FF48060C5F81C
:105AB000C831C5E970124FF400614FF40052C5E9D6
:105AC0007330C5E97512DAE70020024018BA0024E5
:105AD00040000240D8BB002474BB0024704700BFC4
